:020000040000fa
:080000000002040000000000f2
:020000040000fa
:04000800c80200002a
:020000040000fa
:04000c00c802000026
:020000040000fa
:04001000c802000022
:020000040000fa
:04001400c80200001e
:020000040000fa
:04001800c80200001a
:020000040000fa
:04001c00c802000016
:020000040000fa
:04002000c802000012
:020000040000fa
:04002400c80200000e
:020000040000fa
:04002800c80200000a
:020000040000fa
:04002c00c802000006
:020000040000fa
:04003000500d00006f
:020000040000fa
:040034008a0c000032
:020000040000fa
:04003800c8020000fa
:020000040000fa
:04003c00c8020000f6
:020000040000fa
:04004000e40d0000cb
:020000040000fa
:04004400c8020000ee
:020000040000fa
:04004800c8020000ea
:020000040000fa
:04004c00c8020000e6
:020000040000fa
:04005000c8020000e2
:020000040000fa
:04005400c8020000de
:020000040000fa
:04005800c8020000da
:020000040000fa
:04005c004c0e000046
:020000040000fa
:04006000c8020000d2
:020000040000fa
:04006400c8020000ce
:020000040000fa
:04006800c8020000ca
:020000040000fa
:04006c00c8020000c6
:020000040000fa
:04007000c8020000c2
:020000040000fa
:04007400120d000069
:020000040000fa
:04007800c8020000ba
:020000040000fa
:04007c00c8020000b6
:020000040000fa
:04008000c8020000b2
:020000040000fa
:04008400c8020000ae
:020000040000fa
:04008800c8020000aa
:020000040000fa
:04008c00c8020000a6
:020000040000fa
:04009000c8020000a2
:020000040000fa
:04009400c80200009e
:020000040000fa
:04009800c80200009a
:020000040000fa
:04009c00c802000096
:020000040000fa
:0400a000c802000092
:020000040000fa
:0400a400c80200008e
:020000040000fa
:0400a800c80200008a
:020000040000fa
:0400ac00c802000086
:020000040000fa
:0400b000c802000082
:020000040000fa
:0400b400c80200007e
:020000040000fa
:0400b800c80200007a
:020000040000fa
:0400bc00c802000076
:020000040000fa
:0400c000c802000072
:020000040000fa
:0400c400c80200006e
:020000040000fa
:0400c800c80200006a
:020000040000fa
:0400cc00c802000066
:020000040000fa
:0400d000c802000062
:020000040000fa
:0400d400c80200005e
:020000040000fa
:0400d800c80200005a
:020000040000fa
:0400dc00c802000056
:020000040000fa
:0400e000c802000052
:020000040000fa
:0400e400c80200004e
:020000040000fa
:0400e800c80200004a
:020000040000fa
:0400ec00c802000046
:020000040000fa
:0400f000c802000042
:020000040000fa
:0400f400c80200003e
:020000040000fa
:0400f800c80200003a
:020000040000fa
:0400fc00c802000036
:020000040000fa
:04010000c802000031
:020000040000fa
:04010400c80200002d
:020000040000fa
:04010800c802000029
:020000040000fa
:04010c00c802000025
:020000040000fa
:04011000c802000021
:020000040000fa
:04011400c80200001d
:020000040000fa
:04011800c802000019
:020000040000fa
:04011c00c802000015
:020000040000fa
:04012000c802000011
:020000040000fa
:04012400c80200000d
:020000040000fa
:04012800c802000009
:020000040000fa
:04012c00c802000005
:020000040000fa
:04013000c802000001
:020000040000fa
:04013400c8020000fd
:020000040000fa
:04013800c8020000f9
:020000040000fa
:04013c00c8020000f5
:020000040000fa
:04014000c8020000f1
:020000040000fa
:04014400c8020000ed
:020000040000fa
:04014800c8020000e9
:020000040000fa
:04014c00c8020000e5
:020000040000fa
:04015000c8020000e1
:020000040000fa
:04015400c8020000dd
:020000040000fa
:04015800c8020000d9
:020000040000fa
:04015c00c8020000d5
:020000040000fa
:04016000c8020000d1
:020000040000fa
:04016400c8020000cd
:020000040000fa
:04016800c8020000c9
:020000040000fa
:04020800c802000028
:020000040000fa
:04020c00c802000024
:020000040000fa
:04021000c802000020
:020000040000fa
:04021400c80200001c
:020000040000fa
:04021800c802000018
:020000040000fa
:04021c00c802000014
:020000040000fa
:04022000c802000010
:020000040000fa
:04022400c80200000c
:020000040000fa
:04022800c802000008
:020000040000fa
:04022c00c802000004
:020000040000fa
:04023000c802000000
:020000040000fa
:04023400c8020000fc
:020000040000fa
:04023800c8020000f8
:020000040000fa
:04023c00c8020000f4
:020000040000fa
:04024000c8020000f0
:020000040000fa
:04024400c8020000ec
:020000040000fa
:04024800c8020000e8
:020000040000fa
:04024c00c8020000e4
:020000040000fa
:04025000c8020000e0
:020000040000fa
:04025400c8020000dc
:020000040000fa
:04025800c8020000d8
:020000040000fa
:04025c00c8020000d4
:020000040000fa
:04026000c8020000d0
:020000040000fa
:04026400c8020000cc
:020000040000fa
:04026800c8020000c8
:020000040000fa
:04026c00c8020000c4
:020000040000fa
:04027000c8020000c0
:020000040000fa
:04027400c8020000bc
:020000040000fa
:04027800c8020000b8
:020000040000fa
:04027c00c8020000b4
:020000040000fa
:04028000c8020000b0
:020000040000fa
:04028400c8020000ac
:020000040000fa
:04028800c8020000a8
:020000040000fa
:04028c00c8020000a4
:020000040000fa
:04029000c8020000a0
:020000040000fa
:04029400c80200009c
:020000040000fa
:04029800c802000098
:020000040000fa
:04029c00c802000094
:020000040000fa
:0402a000c802000090
:020000040000fa
:0402a400c80200008c
:020000040000fa
:0402a800c802000088
:020000040000fa
:0402ac00c802000084
:020000040000fa
:0402b000c802000080
:020000040000fa
:0402b400c80200007c
:020000040000fa
:0402b800c802000078
:020000040000fa
:0402bc00c802000074
:020000040000fa
:0402c000c802000070
:020000040000fa
:0402c400c80200006c
:020000040000fa
:0402c800c802000068
:020000040000fa
:0402cc00c802000064
:020000040000fa
:0402d000c802000060
:020000040000fa
:0402d400c80200005c
:020000040000fa
:0402d800c802000058
:020000040000fa
:0402dc00c802000054
:020000040000fa
:0402e000c802000050
:020000040000fa
:0402e400c80200004c
:020000040000fa
:0402e800c802000048
:020000040000fa
:0402ec00c802000044
:020000040000fa
:0402f000c802000040
:020000040000fa
:0402f400c80200003c
:020000040000fa
:0402f800c802000038
:020000040000fa
:0402fc00c802000034
:020000040000fa
:04030000c80200002f
:020000040000fa
:04030400c80200002b
:020000040000fa
:04030800c802000027
:020000040000fa
:04030c00c802000023
:020000040000fa
:04031000c80200001f
:020000040000fa
:04031400c80200001b
:020000040000fa
:04031800c802000017
:020000040000fa
:04031c00c802000013
:020000040000fa
:04032000c80200000f
:020000040000fa
:04032400c80200000b
:020000040000fa
:04032800c802000007
:020000040000fa
:04032c00c802000003
:020000040000fa
:04033000c8020000ff
:020000040000fa
:04033400c8020000fb
:020000040000fa
:04033800c8020000f7
:020000040000fa
:04033c00c8020000f3
:020000040000fa
:04034000c8020000ef
:020000040000fa
:04034400c8020000eb
:020000040000fa
:04034800c8020000e7
:020000040000fa
:04034c00c8020000e3
:020000040000fa
:04035000c8020000df
:020000040000fa
:04035400c8020000db
:020000040000fa
:04035800c8020000d7
:020000040000fa
:04035c00c8020000d3
:020000040000fa
:04036000c8020000cf
:020000040000fa
:04036400c8020000cb
:020000040000fa
:04036800c8020000c7
:020000040000fa
:10040000af8f20000eff20000e01880000000000ca
:10041000000020000000e000020032000001200087
:1004200020028800140007005b0007000000e000c5
:1004300003003a0000fd2000010020000200370008
:100440000000200001002000810f70000100320038
:1004500014000700000020000000e000020032004d
:100460000000020000000000aa0f020000000000cf
:100470000040da000000fe004440a9000000200017
:100480000000e0000300320000002000a00188000e
:100490004440a800000006008a1f78008b1f7800e7
:1004a0000000060091018800800478000000eb0045
:1004b0001a003700e284440032a0b4009905ba0063
:1004c000e284440032a0b4009906ba00e2844400f9
:1004d00032a0b4000006eb00476fde00fd07b2005b
:1004e000636ce10003003a00ebff07000000eb0043
:1004f0000a003700606ce10004003a00005deb0088
:100500008b05e900fdff3e00040037006168e10053
:10051000010032000086eb000b00070019c7ba008b
:100520001905ba000e04e00003003a000a00e000da
:10053000e0ff3a0000000600fe07b2009e018800be
:100540008a047800f5ff3700395dba008b05e900b1
:100550000c003200295dba008b05e900080032006a
:100560000c00e00003003a00e284440032a0b40032
:10057000f5ff370019ddba008b05e900faff3a00f4
:100580008904e800e184440032a0b40000000600c1
:100590000040da000000fe000000050003f0a200a9
:1005a000889fbe008a9fbe008c1f7800150107003f
:1005b0001c0133006450e1004f0032006420e10070
:1005c0005200320003826c0007003b000905d00096
:1005d0000306d000820f54000c065d0002003900b3
:1005e00002003200890178000306780085825500f8
:1005f00004003d000003fd008103fd008502ea00c8
:100600008b854200840f720002003b0060001000e6
:10061000e08018006011b8000005eb007a28e100c6
:100620000a00390006007800c75ddd00f707b20058
:10063000878075002d003700828171000a017800e3
:10064000610560008180d1000080d3008502e9004f
:10065000f9ff3b00060440008784480002003b008d
:1006600060041400e0841c000988a3000700320025
:100670008a81710082817100610164008904d10066
:100680000884d3008b05e800170037000978a30021
:1006900013003a000b00e000130034008b05e90062
:1006a0000804440089844c000a4474000978a300bb
:1006b0000d003a000b00e000070034008b05e90054
:1006c0000804440089844c0001003a000b0020001b
:1006d0000978a300f7ff32000001eb0002003700a9
:1006e000828171000a0178008b0007000cf0a700de
:1006f00001f0a000d40037006420e10002003a00bd
:10070000838f6c00d40033000801be000200be00dd
:10071000cd003700889fbe008a9fbe008c1f7800e6
:10072000b8000700bf00330003866c006450e1008e
:100730002e0032006420e100330032006150e100fd
:100740002f0032006120e100310032008585550024
:10075000eb07b00009002000080420000500370066
:100760000804440089844c000a0031000603430059
:1007700087834b000001530081815b00f8ff330049
:100780000203be000800a0000804440089844c0055
:10079000f6ff3900c639dd00830173000100320025
:1007a000130020008904d1000884d3000998a30015
:1007b000050032000800a7000300a0008904d10052
:1007c0000884d3008b05e8008904d1000884d30095
:1007d0000001eb000281d2004f00070001f0a100f0
:1007e0000cf0a70001f0a000970037006420e100a2
:1007f000990032000801be000200be00f7ff37007a
:100800006120e100940032006000b800f3ff37007f
:100810000000200001f82700f0ff37000001be00b3
:10082000630007000470a70003f0a1006509b10090
:10083000160032000d0035006828e1000600350082
:10084000f0ff2f00f1ff27000300e00013003b0042
:1008500001002800000005000000400081804800e1
:100860008502e900fcff3a0008003700f88f4200db
:1008700002003c008000eb00000005008100d10078
:100880000080d3008502e800fcff3a000300e0008e
:1008900002003b0060001000e0801800000006002d
:1008a0000001be00420007000470a70003f0a10091
:1008b00003f8a30013003a006509b10010003200ec
:1008c000090035006928e100020035000100280018
:1008d0000000050000004000818048008502e9001a
:1008e000fcff3a0000000600f88f420005003500ca
:1008f0008100d1000080d3008502e800fcff3a00af
:10090000000006008000eb00000005004f89de00bb
:100910008201780087003700810020006180550047
:100920000b003d000b00200061fe2f000100e100e4
:100930001d00340082817100610164008904d100ce
:100940000884d3000000e800faff3a00710020009c
:1009500061006400030070000200600009003200c2
:1009600061044400e0844c000988a50005003200c1
:100970008b05e8006808e10002003a008904d10014
:100980000884d300f20f20000258e10005003d006a
:10099000c75ddd00f907b2008980750008007800a6
:1009a000000006000bf827008b007800000005000f
:1009b000c70ade00f107b200f50fb20008003200ee
:1009c000e1cf4200020032000170a00024000500c7
:1009d000810f70000100320004080500440005008a
:1009e000810f700002003a00140005008502e90042
:1009f0000000400081c04800fcff3b000170a000e7
:100a0000240005000004be00e9ff07000003be004b
:100a10000405be000200be00e5ff0700844f75001c
:100a2000000006000200be006450e1000500360030
:100a30006420e100020036000968a30001003a00ca
:100a40000800be000160a0004f0678004f05be0000
:100a50004f04be0000000600f0ff2f00f1ff27004a
:100a6000f9ff3700889fbe008a9fbe008c1f780068
:100a7000e4ff0700ebff330003866c006450e100e5
:100a8000240032006420e100270032006150e100c0
:100a9000220032006120e100210032008b854200fb
:100aa000eb07b1000134b800003ab8000804420076
:100ab00089844a00013ab8000030b80088804000bc
:100ac00009014a0004003300000040008180480012
:100ad000020149008b05e900c909dd0083017000ae
:100ae0000100320013002000c814de004814dd00ad
:100af0004709de001200b200c808de00088470005a
:100b000085ff070001f0a1000cf0a70001f0a00094
:100b1000cdff37006120e100cfff32000801be00a9
:100b20000200be00f7ff37006150e100fcff3a0011
:100b3000c9ff3700881f7800030478000300e00035
:100b400007003d0060001000e080180060011900ff
:100b5000e081190002003b0001f02d000300370086
:100b60000400070008f0a70001f0a0004f0478007f
:100b700000000600889fbe008a9fbe0000827000b1
:100b80000402710004827100260032000004be00dd
:100b90000200be006011b8006b0920009502200021
:100ba0000182cf000a0039000541b1000082cf0068
:100bb000070039000541b1000982cf000400390067
:100bc0000541b1000882cf00010039000541b100a4
:100bd00005425200120032000a003b00828171007f
:100be000610164008100d1000080d3008984d300ba
:100bf0000884d3008b05e8000442e800f7ff3a00c0
:100c0000070037000804440089844c0000004800b5
:100c1000818048008b05e9000442e900f9ff3a00b1
:100c20003dff07004f05be004f04be000000060058
:020000040000fa
:100c30000000fa00e024ef00e224ef00e064a800e6
:100c4000e3c4a800e3a4a800e384a800c422ef0042
:100c5000cc22ef00c002a800c022a800c802a90050
:100c6000c822a900c842a800c042a900c062a800ca
:100c7000c882a800c082a800c9e2a800c9c2a80012
:100c8000c9a2a800c982a800c0c2a900c922a9009f
:100c9000c902a900c8e2a9006240a8005640a80005
:100ca0006260a8005660a80061058000f0ff28007f
:100cb0008080600000002600010070006005880050
:100cc000c422a900c402a9000080fa0000000600a6
:100cd0000000fa001fe1a900f1088000f0fc2f00dd
:100ce000008060000040a000f00888001e21a900dc
:100cf0009a21ef009c21ef00d10c8000f03f2e00e4
:100d00000080600000b0a000d00c8800d10c8000f2
:100d100080ff2f00008060006000b300d00c8800ce
:100d2000e00c8000f001b300e00c8800f0702200bd
:100d3000f00c8800e02e2000000d880031058000b6
:100d4000f08f2f000080600000a0a0003005880018
:100d500094c0a90084c0a90011e1a9008108800005
:100d6000f0fc2f0000806000800888001061a9005e
:100d70001021a9009021ef009221ef00810c80004a
:100d8000f03f2e0000806000800c8800810c800005
:100d900080ff2f00008060006000b300800c88009e
:100da000900c8000f001b300900c880000e8230054
:100db000a00c88009621ef0021058000f08f2f0005
:100dc0000080600000a0a000200588009440a900d9
:100dd0008440a90013e1a90091088000f0fc2f00d5
:100de000008060000040a000900888001221a90047
:100df000a421ef00a621ef00210d8000f03f2e007e
:100e00000080600000a0a000200d8800210d80005f
:100e100080ff2f00008060006000b300200d88007c
:100e2000300d8000f001b300300d8800f07022001a
:100e3000400d8800c03d2000500d88000080fa0061
:100e4000000006000000fa0005e1a9000421a90045
:100e500021088000000320000100700020088800a5
:100e60000021ef0021058000f0ff28008080600055
:100e70000000250001007000200588009460a80093
:100e80008460a9000080fa00000006000000fa005b
:100e9000111a8000f0ff230000806000101a880003
:100ea00043a3a90020c0b30044e3b700011a8000a7
:100eb000f0f02f008080600000072000010070002b
:100ec000001a88004043a800211a8000f00f2e006d
:100ed000008060000080a000201a88004343a80022
:100ee00051c3a8005183a8005163a8005143a80032
:100ef0004143a800011a8000f0cf2f00008060005d
:100f0000001a88004363a800111a800030f82f00ef
:100f100000806000c000b300101a880041e3a80000
:100f20000080fa00000006000000fa0040ff070001
:100f300067ff0700c3ff0700d4ff07000080fa0027
:100f4000000006000200fa00000f78009e00780002
:100f5000214088001e0078000000e00003003200fd
:100f6000e10f50000300320004003700cce2a8007b
:100f700002003700cce2a900000000000080fa0067
:100f8000000006000200fa00000f78009e007800c2
:100f9000314088001e007800e10f50000b00320045
:100fa000e10f500005003900e20f50000b00320045
:100fb000e30f50000d0032001000370013e1a800cd
:100fc000c03d2000af0007000c00370013e1a8006f
:100fd00030112000ab0007000800370013e1a80023
:100fe000e02e2000a70007000400370013e1a8004e
:100ff000904c2000a3000700000000000080fa00d1
:10100000000006000200fa00000f78009e00780041
:10101000414088001e007800e10f50000a003200b5
:10102000e10f500005003900e20f500009003200c6
:10103000e30f50000a0032000c0037001fe1a90046
:1010400094c0a900090037001fe1a80094c0a800bf
:10105000060037001fe1a80094c0a8000300370075
:101060001fe1a80094c0a800000000000080fa0062
:10107000000006000200fa00000f78009e007800d1
:10108000914088001e0078000000e000030032005c
:10109000e10f500004003200060037008660a9000e
:1010a0009660a800030037008660a9009660a9003a
:1010b000000000000080fa00000006000200fa00b4
:1010c000000f78009e007800814088001e007800a4
:1010d0000000e00003003200e10f50001600320073
:1010e0001e0037008000eb000000eb00c500070089
:1010f0008000eb000000eb00f90007008000eb002f
:101100000000eb002d0107008000eb000000eb0069
:101110006101070095a0a80051058000f0f82f009c
:1011200080806000000620000100700050058800eb
:1011300085a0a9000900370095a0a90051058000ed
:10114000f0f82f0080806000000620000100700091
:101150005005880085a0a900000000000080fa006a
:10116000000006000200fa00000f78009e007800e0
:10117000514088001e007800e20f50001900320034
:10118000e20f500005003e000000e00008003200c1
:10119000e10f50000c00320027003700e30f500031
:1011a00017003200e40f50001c003200220037000c
:1011b00011e1a9009440a9009621ef00cd02a900f9
:1011c000cd22a9001c00370011e1a8009440a8001e
:1011d00000f42100b00c8800cd02a900cd22a800a7
:1011e0001500370011e1a8009440a80000f4210088
:1011f000b00c8800cd02a900cd22a9000e00370056
:1012000011e1a8009440a80000f42100b00c88006f
:10121000cd02a800cd22a8000700370011e1a800e8
:101220009440a80000f42100b00c8800cd02a80072
:10123000cd22a900000000000c28ef000080fa0079
:10124000000006000200fa00000f78009e007800ff
:10125000714088001e0078000000e00003003200aa
:10126000e10f50000300320004003700c442a9001f
:1012700002003700c442a800000000000080fa000d
:10128000000006000200fa00000f78000e00370090
:101290009e007800500d8000808f500004003100c7
:1012a000500d80000000e900500d88000300370059
:1012b000500d80000000e800500d880000fa20006a
:1012c00001002000280307009e007800500d8000d8
:1012d000808f5000eeff3a000080fa000000060008
:1012e0000400fa00889fbe00008fbe00024022006a
:1012f000436724001e00be00dafd070002f02f0045
:10130000f377240003fd070044fd07000000780088
:10131000004088000021ef000240220043672400c3
:101320001e00be00cffd07000004be00004080008c
:10133000cf80de000081eb000289b9000201780055
:101340006002b90084017800030141008081eb0054
:101350000300b80001014100820078006bfd070026
:101360000001be000800be008cfc07004cfd070019
:1013700000007800100888009460a80005e1a8002b
:101380004f04be000080fa00000006000000fa00d2
:10139000004080000000e0000500340000408000b4
:1013a0000000e90000408800100020000400370021
:1013b00005e1a9000021ef009460a9000000eb0006
:1013c0000080fa00000006000200fa00000f78001a
:1013d0009e007800000d8000808f500004003100d6
:1013e000000d80006a005000000d880003003700e7
:1013f000000d80006a004000000d88000080fa00a7
:10140000000006000600fa00100798002107980067
:101410002e0090000000e00013003a000000eb00f6
:10142000000f78000000eb00000f78000700370085
:101430001e00780080004000208b200000804000cb
:101440008000eb00010878001e0fe8001e00780005
:10145000ff0f5000f6ff3400f228ef00f468ef00b1
:1014600010c0b300f9e8b70091478000f9c8bf0089
:101470000080fb0000014000208b200000004100a4
:1014800010007800808050001e0090000080400016
:1014900090478800f4c8bf000080fb008000400037
:1014a000208b2000008040009e0090000108780002
:1014b000f4c8bf000040e8007f406000f4e8b700d7
:1014c000f9c8bf000040e8007f406000f9e8b700bd
:1014d000904780004580de000080fa000000060092
:1014e0000600fa0010079800210798002e009000cf
:1014f0000000e00013003a000000eb00000f78004d
:101500000000eb00000f7800070037001e00780095
:1015100080004000e0862000008040008000eb005a
:10152000010878001e0fe8001e007800ff0f500031
:10153000f6ff3400ae28ef00b068ef0010c0b30033
:10154000f8e8b70071458000f8c8bf000080fb00d4
:1015500000014000e08620000000410010007800fb
:10156000808050001e009000008040007045880080
:10157000b0c8bf000080fb0080004000e086200073
:10158000008040009e00900001087800b0c8bf00b5
:101590000040e8007f406000b0e8b700f8c8bf0036
:1015a0000040e8007f406000f8e8b7007045800028
:1015b0004580de000080fa00000006000600fa0008
:1015c00010079800210798002e0090000000e0000e
:1015d00013003a000000eb00000f78000000eb0061
:1015e000000f7800070037001e00780080004000e0
:1015f000a0822000008040008000eb0001087800fd
:101600001e0fe8001e007800ff0f5000f6ff3400a8
:101610006a28ef006c68ef0010c0b300f7e8b7006d
:1016200051438000f7c8bf000080fb00000140006c
:10163000a08220000000410010007800808050004f
:101640001e00900000804000504388006cc8bf001e
:101650000080fb0080004000a0822000008040004d
:101660009e009000010878006cc8bf000040e800b0
:101670007f4060006ce8b700f7c8bf000040e8009a
:101680007f406000f7e8b700504380004580de00ef
:101690000080fa00000006000600fa00100798001b
:1016a000210798002e0090000000e00013003a008f
:1016b0000000eb00000f78000000eb00000f780046
:1016c00007003700e18120001e0078000000400084
:1016d000008040008000eb00010878001e0fe80049
:1016e0001e007800e30f5000f6ff34002628ef00bc
:1016f0002868ef0010c0b300f6e8b7003141800061
:10170000f6c8bf000080fb00e2812000000040001e
:101710000000410010007800808050001e00900002
:10172000008040003041880028c8bf000080fb00d6
:10173000e181200000004000008040009e009000f9
:101740000108780028c8bf000040e800634060003e
:1017500028e8b700f6c8bf000040e800634060001a
:10176000f6e8b700304180004280de000080fa00d9
:10177000000006000200fa00000f78009e007800ca
:10178000a14088001e0078008000eb00b20020001d
:1017900003002000820f5000838f58005b003e0042
:1017a000006001000b0037001c00370020003700ec
:1017b00024003700280037002c00370031003700a4
:1017c000330037003a0037003c0037004200370052
:1017d00048003700200020000afe07000000eb0050
:1017e00098fe070010002000d6fd07000000eb0067
:1017f0005cfe07001000200030fe070010002000f3
:101800001cfe07000000eb00defd070000002000ca
:1018100001f82300b2fe07003c0037003000200032
:1018200050fe07000000eb0024fe070037003700e1
:10183000200020004bfe0700100020001ffe0700c4
:10184000320037004000200046fe07000000eb0099
:1018500008fe07002d0037001000200005fe0700dd
:101860000000eb00b7fd0700280037000000eb0088
:101870003cfe0700000020000100240098fe070045
:10188000220037001000200036fe07001f0037003e
:1018900010002000abfd07000000eb0031fe070048
:1018a00000002000010024008dfe07001700370013
:1018b000100020002bfe0700140037000000eb0092
:1018c00028fe070020002000aefd07000000eb000e
:1018d000fafd07000d00370010002000c9fd0700c9
:1018e0001000200057fe07000000eb00f3fd07008a
:1018f000060037000000eb00a2fd070000002000fa
:1019000001fc230076fe0700000000000080fa00c2
:10191000000006003600f800809fbe00829fbe00d7
:10192000849fbe00869fbe000000fa008460a9006c
:10193000a0408000e70f500018003200e70f500071
:1019400005003e000000e00008003200e50f5000f6
:101950000c0032002c003700ea0f50001500320056
:10196000eb0f5000190032002700370087fe0700f8
:101970000000e0001b003a00100020007dff07007f
:101980002100370081fe07000000e00017003a0048
:101990006000200077ff07001b0037007bfe070078
:1019a0000000e00013003a008000200071ff0700f3
:1019b0001500370075fe07000000e0000f003a0038
:1019c000b00020006bff07000f0037006ffe07001c
:1019d0000000e0000b003a00a000200065ff0700b7
:1019e0000900370000000000070037000000000079
:1019f0000500370000000000030037000000000071
:101a000001003700000000000080fa004f03be0014
:101a10004f02be004f01be004f00be003600f9006d
:101a2000004006003600f800809fbe00829fbe0086
:101a3000849fbe00869fbe000000fa008660a90059
:101a4000a0408000e30f50000e003a001016800006
:101a5000610060000000e000070032001016800006
:101a6000620060000000e00005003200400020003d
:101a700040ff0700030037000000000001003700ae
:101a8000000000000080fa004f03be004f02be00bd
:101a90004f01be004f00be003600f90000400600b6
:101aa0003600f800809fbe00829fbe00849fbe006b
:101ab000869fbe000000fa008440a900a04080007c
:101ac000e40f500014003200e40f500003003e0009
:101ad000e20f50000600320034003700e60f5000dd
:101ae00017003200e80f50001f0032002f003700af
:101af000604080000000e800604088006140800095
:101b000050132000808f500021003400300020004e
:101b100018ff070025003700604080000000e80043
:101b20006040880061408000a0042000808f500049
:101b300019003400500020000eff07001b00370082
:101b4000604080000000e800604088006140800044
:101b500030062000808f50001100340070002000fb
:101b600004ff070011003700604080000000e8001b
:101b7000604088006140800070252000808f500008
:101b80000900340090002000fafe0700070037002b
:101b900000000000050037000000000003003700cf
:101ba0000000000001003700000000000080fa0083
:101bb0004f03be004f02be004f01be004f00be00eb
:101bc0003600f900004006003600f800809fbe0095
:101bd000829fbe00849fbe00869fbe000000fa0068
:101be00084c0a90040408000e20f50000500320090
:101bf000e30f500017003200e10f50000b003200dd
:101c00001e003700010d8000e02e2000808f500064
:101c100003003a000000eb00fafc07001700370051
:101c2000e02e2000e8fd070014003700010d8000c1
:101c3000401f2000808f500003003a003000200039
:101c4000f0fc07000d003700401f2000defd0700fc
:101c50000a003700010d8000803e2000808f500078
:101c600003003a0010002000e6fc070003003700e4
:101c7000803e2000d4fd0700000000000080fa0034
:101c80004f03be004f02be004f01be004f00be001a
:101c90003600f900004006003600f800809fbe00c4
:101ca000829fbe00849fbe00869fbe000000fa0097
:101cb000a0408000e90f50000f003200ea0f5000f2
:101cc0004f003200e10f50009a003a00c018800027
:101cd00011002000cbfd0700c0408800c1408000fb
:101ce000603b2000808f50008d00340020002000d9
:101cf000a0fe07008f003700c018800011002000f0
:101d0000c0fd0700c0408800b0188000110020000e
:101d1000f3fd0700d0408800a018800011002000cb
:101d200026fe0700e0408800c1408000603b2000a4
:101d3000808f50000e00340030408000e20f5000d1
:101d400002003200200020008efc07008000eb0023
:101d50000000eb00e2fd07008000eb000000eb005c
:101d600016fe0700a000200082fe07007100370069
:101d7000d1408000603b2000808f50000e00340076
:101d800030408000e10f50000200320010002000bf
:101d90007cfc07008000eb000000eb0099fd0700d1
:101da0008000eb000000eb0004fe0700a000200014
:101db00070fe07005f003700e1408000603b2000bc
:101dc000808f50005800340030408000e30f5000f6
:101dd00002003200300020006afc07008000eb00a7
:101de0000000eb0087fd07008000eb000000eb0027
:101df000bbfd0700a00020005efe07004d0037007d
:101e0000c0188000110020007efd0700c04088003f
:101e1000b018800011002000b1fd0700d0408800fc
:101e2000a018800011002000e4fd0700e0408800b9
:101e3000c1408000603b2000808f50000b003400c8
:101e400030408000e20f5000080032008000eb00bc
:101e50000000eb00a2fd07008000eb000000eb009b
:101e6000d6fd07002000200046fc0700d14080007e
:101e7000603b2000808f50000b0034003040800019
:101e8000e10f5000080032008000eb000000eb0082
:101e90005cfd07008000eb000000eb00c7fd0700c1
:101ea0001000200037fc0700e1408000603b20006c
:101eb000808f50000b00340030408000e30f500052
:101ec000080032008000eb000000eb004dfd070031
:101ed0008000eb000000eb0081fd070030002000d7
:101ee00028fc0700e0188000b0408800b140800066
:101ef000c0da2000808f50000d0034001000200058
:101f00006efc07008000eb000000eb00e2fd070024
:101f10000000200001f82300f1fc07000500370055
:101f2000000000000300370000000000010037003f
:101f30000000000085a0a9000080fa004f03be0049
:101f40004f02be004f01be004f00be003600f90038
:101f5000004006000000fa00f3fb07000000eb0061
:081f600004fe0700ffff37003b
:020000040000fa
:101f6800f03fb1000180b10006003500ee03090022
:101f780000000000403fb1000180b100fbff3d00c0
:101f88001000b000203fb0000200350000800900ba
:081f980000000000000006003b
:020000040000fa
:101fa00000080000f600000000000000f608000035
:101fb0000400000002000000010101000100000017
:041fc000000000001d
:020000040000fa
:0200000401f009
:04000c00f8ff0000f9
:020000040000fa
:0200000401f009
:04001000fbff0000f2
:020000040000fa
:0200000401f009
:04001c00fdff0000e4
:00000001FF
