:020000040000fa
:080000000002040000000000f2
:020000040000fa
:04000800c80200002a
:020000040000fa
:04000c00c802000026
:020000040000fa
:04001000c802000022
:020000040000fa
:04001400c80200001e
:020000040000fa
:04001800c80200001a
:020000040000fa
:04001c00c802000016
:020000040000fa
:04002000c802000012
:020000040000fa
:04002400c80200000e
:020000040000fa
:04002800c80200000a
:020000040000fa
:04002c00c802000006
:020000040000fa
:04003000100c0000b0
:020000040000fa
:040034005e0b00005f
:020000040000fa
:04003800c8020000fa
:020000040000fa
:04003c00c8020000f6
:020000040000fa
:04004000a40c00000c
:020000040000fa
:04004400c8020000ee
:020000040000fa
:04004800c8020000ea
:020000040000fa
:04004c00c8020000e6
:020000040000fa
:04005000c8020000e2
:020000040000fa
:04005400c8020000de
:020000040000fa
:04005800c8020000da
:020000040000fa
:04005c000c0d000087
:020000040000fa
:04006000c8020000d2
:020000040000fa
:04006400c8020000ce
:020000040000fa
:04006800c8020000ca
:020000040000fa
:04006c00c8020000c6
:020000040000fa
:04007000c8020000c2
:020000040000fa
:04007400d20b0000ab
:020000040000fa
:04007800c8020000ba
:020000040000fa
:04007c00c8020000b6
:020000040000fa
:04008000c8020000b2
:020000040000fa
:04008400c8020000ae
:020000040000fa
:04008800c8020000aa
:020000040000fa
:04008c00c8020000a6
:020000040000fa
:04009000c8020000a2
:020000040000fa
:04009400c80200009e
:020000040000fa
:04009800c80200009a
:020000040000fa
:04009c00c802000096
:020000040000fa
:0400a000c802000092
:020000040000fa
:0400a400c80200008e
:020000040000fa
:0400a800c80200008a
:020000040000fa
:0400ac00c802000086
:020000040000fa
:0400b000c802000082
:020000040000fa
:0400b400c80200007e
:020000040000fa
:0400b800c80200007a
:020000040000fa
:0400bc00c802000076
:020000040000fa
:0400c000c802000072
:020000040000fa
:0400c400c80200006e
:020000040000fa
:0400c800c80200006a
:020000040000fa
:0400cc00c802000066
:020000040000fa
:0400d000c802000062
:020000040000fa
:0400d400c80200005e
:020000040000fa
:0400d800c80200005a
:020000040000fa
:0400dc00c802000056
:020000040000fa
:0400e000c802000052
:020000040000fa
:0400e400c80200004e
:020000040000fa
:0400e800c80200004a
:020000040000fa
:0400ec00c802000046
:020000040000fa
:0400f000c802000042
:020000040000fa
:0400f400c80200003e
:020000040000fa
:0400f800c80200003a
:020000040000fa
:0400fc00c802000036
:020000040000fa
:04010000c802000031
:020000040000fa
:04010400c80200002d
:020000040000fa
:04010800c802000029
:020000040000fa
:04010c00c802000025
:020000040000fa
:04011000c802000021
:020000040000fa
:04011400c80200001d
:020000040000fa
:04011800c802000019
:020000040000fa
:04011c00c802000015
:020000040000fa
:04012000c802000011
:020000040000fa
:04012400c80200000d
:020000040000fa
:04012800c802000009
:020000040000fa
:04012c00c802000005
:020000040000fa
:04013000c802000001
:020000040000fa
:04013400c8020000fd
:020000040000fa
:04013800c8020000f9
:020000040000fa
:04013c00c8020000f5
:020000040000fa
:04014000c8020000f1
:020000040000fa
:04014400c8020000ed
:020000040000fa
:04014800c8020000e9
:020000040000fa
:04014c00c8020000e5
:020000040000fa
:04015000c8020000e1
:020000040000fa
:04015400c8020000dd
:020000040000fa
:04015800c8020000d9
:020000040000fa
:04015c00c8020000d5
:020000040000fa
:04016000c8020000d1
:020000040000fa
:04016400c8020000cd
:020000040000fa
:04016800c8020000c9
:020000040000fa
:04020800c802000028
:020000040000fa
:04020c00c802000024
:020000040000fa
:04021000c802000020
:020000040000fa
:04021400c80200001c
:020000040000fa
:04021800c802000018
:020000040000fa
:04021c00c802000014
:020000040000fa
:04022000c802000010
:020000040000fa
:04022400c80200000c
:020000040000fa
:04022800c802000008
:020000040000fa
:04022c00c802000004
:020000040000fa
:04023000c802000000
:020000040000fa
:04023400c8020000fc
:020000040000fa
:04023800c8020000f8
:020000040000fa
:04023c00c8020000f4
:020000040000fa
:04024000c8020000f0
:020000040000fa
:04024400c8020000ec
:020000040000fa
:04024800c8020000e8
:020000040000fa
:04024c00c8020000e4
:020000040000fa
:04025000c8020000e0
:020000040000fa
:04025400c8020000dc
:020000040000fa
:04025800c8020000d8
:020000040000fa
:04025c00c8020000d4
:020000040000fa
:04026000c8020000d0
:020000040000fa
:04026400c8020000cc
:020000040000fa
:04026800c8020000c8
:020000040000fa
:04026c00c8020000c4
:020000040000fa
:04027000c8020000c0
:020000040000fa
:04027400c8020000bc
:020000040000fa
:04027800c8020000b8
:020000040000fa
:04027c00c8020000b4
:020000040000fa
:04028000c8020000b0
:020000040000fa
:04028400c8020000ac
:020000040000fa
:04028800c8020000a8
:020000040000fa
:04028c00c8020000a4
:020000040000fa
:04029000c8020000a0
:020000040000fa
:04029400c80200009c
:020000040000fa
:04029800c802000098
:020000040000fa
:04029c00c802000094
:020000040000fa
:0402a000c802000090
:020000040000fa
:0402a400c80200008c
:020000040000fa
:0402a800c802000088
:020000040000fa
:0402ac00c802000084
:020000040000fa
:0402b000c802000080
:020000040000fa
:0402b400c80200007c
:020000040000fa
:0402b800c802000078
:020000040000fa
:0402bc00c802000074
:020000040000fa
:0402c000c802000070
:020000040000fa
:0402c400c80200006c
:020000040000fa
:0402c800c802000068
:020000040000fa
:0402cc00c802000064
:020000040000fa
:0402d000c802000060
:020000040000fa
:0402d400c80200005c
:020000040000fa
:0402d800c802000058
:020000040000fa
:0402dc00c802000054
:020000040000fa
:0402e000c802000050
:020000040000fa
:0402e400c80200004c
:020000040000fa
:0402e800c802000048
:020000040000fa
:0402ec00c802000044
:020000040000fa
:0402f000c802000040
:020000040000fa
:0402f400c80200003c
:020000040000fa
:0402f800c802000038
:020000040000fa
:0402fc00c802000034
:020000040000fa
:04030000c80200002f
:020000040000fa
:04030400c80200002b
:020000040000fa
:04030800c802000027
:020000040000fa
:04030c00c802000023
:020000040000fa
:04031000c80200001f
:020000040000fa
:04031400c80200001b
:020000040000fa
:04031800c802000017
:020000040000fa
:04031c00c802000013
:020000040000fa
:04032000c80200000f
:020000040000fa
:04032400c80200000b
:020000040000fa
:04032800c802000007
:020000040000fa
:04032c00c802000003
:020000040000fa
:04033000c8020000ff
:020000040000fa
:04033400c8020000fb
:020000040000fa
:04033800c8020000f7
:020000040000fa
:04033c00c8020000f3
:020000040000fa
:04034000c8020000ef
:020000040000fa
:04034400c8020000eb
:020000040000fa
:04034800c8020000e7
:020000040000fa
:04034c00c8020000e3
:020000040000fa
:04035000c8020000df
:020000040000fa
:04035400c8020000db
:020000040000fa
:04035800c8020000d7
:020000040000fa
:04035c00c8020000d3
:020000040000fa
:04036000c8020000cf
:020000040000fa
:04036400c8020000cb
:020000040000fa
:04036800c8020000c7
:020000040000fa
:100400002f9320000eff20000e0188000000000046
:10041000000020000000e000020032000001200087
:1004200020028800140007005b0007000000e000c5
:1004300003003a0080e520000100200002003700a0
:100440000000200001002000810f70000100320038
:1004500014000700000020000000e000020032004d
:100460000000020000000000320e02000000000048
:100470000040da000000fe004440a9000000200017
:100480000000e0000300320000002000a00188000e
:100490004440a800000006008a1f78008b1f7800e7
:1004a0000000060091018800800478000000eb0045
:1004b0001a003700e284440032a0b4009905ba0063
:1004c000e284440032a0b4009906ba00e2844400f9
:1004d00032a0b4000006eb00476fde00fd07b2005b
:1004e000636ce10003003a00ebff07000000eb0043
:1004f0000a003700606ce10004003a00005deb0088
:100500008b05e900fdff3e00040037006168e10053
:10051000010032000086eb000b00070019c7ba008b
:100520001905ba000e04e00003003a000a00e000da
:10053000e0ff3a0000000600fe07b2009e018800be
:100540008a047800f5ff3700395dba008b05e900b1
:100550000c003200295dba008b05e900080032006a
:100560000c00e00003003a00e284440032a0b40032
:10057000f5ff370019ddba008b05e900faff3a00f4
:100580008904e800e184440032a0b40000000600c1
:100590000040da000000fe0000000500889fbe0059
:1005a0008a9fbe008c1f78009d000700a4003300c6
:1005b00003866c006450e1002e0032006420e100ec
:1005c000330032006150e1002f0032006120e10071
:1005d0003100320085855500eb07b000090020008e
:1005e00008042000050037000804440089844c00fa
:1005f0000a0031000603430087834b0000015300cb
:1006000081815b00f8ff33000203be000800a000f8
:100610000804440089844c00f6ff3900c639dd0027
:100620008301730001003200130020008904d1000f
:100630000884d3000998a300050032000800a70031
:100640000300a0008904d1000884d3008b05e800d2
:100650008904d1000884d3000001eb000281d2009c
:100660003400070001f0a1000cf0a70001f0a00089
:100670007c0037006420e1007e0032000801be00eb
:100680000200be00f7ff37006120e1007900320070
:100690006000b800f3ff37000000200001f82700d9
:1006a000f0ff37000001be00480007000470a700fb
:1006b00003f0a1006509b100160032000d003500fd
:1006c0006828e10006003500f0ff2f00f1ff270049
:1006d0000300e00013003b000100280000000500bb
:1006e00000004000818048008502e900fcff3a00dc
:1006f00008003700f88f420002003c008000eb0049
:10070000000005008100d1000080d3008502e800d0
:10071000fcff3a000300e00002003b006000100014
:10072000e0801800000006004f89de00820178009a
:100730008700370081002000618055000b003d00dc
:100740000b00200061fe2f000100e1001d003400bd
:1007500082817100610164008904d1000884d300a2
:100760000000e800faff3a00710020006100640018
:1007700003007000020060000900320061044400c0
:10078000e0844c000988a500050032008b05e800d4
:100790006808e10002003a008904d1000884d3000f
:1007a000f20f20000258e10005003d00c75ddd00aa
:1007b000f907b20089807500080078000000060083
:1007c0000bf827008b00780000000500c70ade0048
:1007d000f107b200f50fb20008003200e1cf42008d
:1007e000020032000170a00024000500810f70009b
:1007f000010032000408050044000500810f70006c
:1008000002003a00140005008502e90000004000e3
:1008100081c04800fcff3b000170a00024000500df
:100820000004be00e9ff07000003be000405be008f
:100830000200be00e5ff0700844f750000000600bf
:100840000200be006450e100050036006420e100b3
:10085000020036000968a30001003a000800be004b
:100860000160a0004f0678004f05be004f04be0097
:1008700000000600f0ff2f00f1ff2700f9ff37000e
:10088000889fbe008a9fbe008c1f7800e4ff07008f
:10089000ebff330003866c006450e100240032005b
:1008a0006420e100270032006150e10022003200a4
:1008b0006120e100210032008b854200eb07b1008e
:1008c0000134b800003ab8000804420089844a00a4
:1008d000013ab8000030b8008880400009014a00a1
:1008e00004003300000040008180480002014900fc
:1008f0008b05e900c909dd008301700001003200a9
:1009000013002000c814de004814dd004709de0093
:100910001200b200c808de000884700085ff0700de
:1009200001f0a1000cf0a70001f0a000cdff3700fe
:100930006120e100cfff32000801be000200be00ce
:10094000f7ff37006150e100fcff3a00c9ff3700b4
:10095000881f7800030478000300e00007003d00d2
:1009600060001000e080180060011900e0811900ab
:1009700002003b0001f02d000300370004000700d7
:1009800008f0a70001f0a0004f0478000000060066
:10099000889fbe008a9fbe00008270000402710022
:1009a00004827100260032000004be000200be0076
:1009b0006011b8006b092000950220000182cf0071
:1009c0000a0039000541b1000082cf00070039005c
:1009d0000541b1000982cf00040039000541b10092
:1009e0000882cf00010039000541b10005425200e4
:1009f000120032000a003b00828171006101640034
:100a00008100d1000080d3008984d3000884d30002
:100a10008b05e8000442e800f7ff3a0007003700c2
:100a20000804440089844c0000004800818048008c
:100a30008b05e9000442e900f9ff3a003dff070099
:0c0a40004f05be004f04be000000060081
:020000040000fa
:100a4c000000fa00e024ef00e224ef00e064a800cc
:100a5c00e3c4a800e3a4a800e384a800c422ef0028
:100a6c00cc22ef00c002a800c022a800c802a90036
:100a7c00c822a900c842a800c042a900c062a800b0
:100a8c00c882a800c082a800c9e2a800c9c2a800f8
:100a9c00c9a2a800c982a800c0c2a900c922a90085
:100aac00c902a900c8e2a9006240a8005640a800eb
:100abc006260a8005660a80061058000f0ff280065
:100acc008080600000002600010070006005880036
:100adc00c422a900c402a9000080fa00000006008c
:100aec000000fa001fe1a900f1088000f0fc2f00c3
:100afc00008060000040a000f00888001e21a900c2
:100b0c009a21ef009c21ef00d10c8000f03f2e00c9
:100b1c000080600000b0a000d00c8800d10c8000d8
:100b2c0080ff2f00008060006000b300d00c8800b4
:100b3c00e00c8000f001b300e00c8800f0702200a3
:100b4c00f00c8800e02e2000000d8800310580009c
:100b5c00f08f2f000080600000a0a00030058800fe
:100b6c0094c0a90084c0a90011e1a90081088000eb
:100b7c00f0fc2f0000806000800888001061a90044
:100b8c001021a9009021ef009221ef00810c800030
:100b9c00f03f2e0000806000800c8800810c8000eb
:100bac0080ff2f00008060006000b300800c880084
:100bbc00900c8000f001b300900c880000e823003a
:100bcc00a00c88009621ef0021058000f08f2f00eb
:100bdc000080600000a0a000200588009440a900bf
:100bec008440a90013e1a90091088000f0fc2f00bb
:100bfc00008060000040a000900888001221a9002d
:100c0c00a421ef00a621ef00210d8000f03f2e0063
:100c1c000080600000a0a000200d8800210d800045
:100c2c0080ff2f00008060006000b300200d880062
:100c3c00300d8000f001b300300d8800f070220000
:100c4c00400d8800c03d2000500d88000080fa0047
:100c5c00000006000000fa0005e1a9000421a9002b
:100c6c00210880000003200001007000200888008b
:100c7c000021ef0021058000f0ff2800808060003b
:100c8c000000250001007000200588009460a80079
:100c9c008460a9000080fa00000006000000fa0041
:100cac00111a8000f0ff230000806000101a8800e9
:100cbc0043a3a90020c0b30044e3b700011a80008d
:100ccc00f0f02f0080806000000720000100700011
:100cdc00001a88004043a800211a8000f00f2e0053
:100cec00008060000080a000201a88004343a80008
:100cfc0051c3a8005183a8005163a8005143a80018
:100d0c004143a800011a8000f0cf2f000080600042
:100d1c00001a88004363a800111a800030f82f00d5
:100d2c0000806000c000b300101a880041e3a800e6
:100d3c000080fa00000006000000fa0040ff0700e7
:100d4c0067ff0700c3ff0700d4ff07000080fa000d
:100d5c00000006000200fa00000f78009e007800e8
:100d6c00214088001e0078000000e00003003200e3
:100d7c00e10f50000300320004003700cce2a80061
:100d8c0002003700cce2a900000000000080fa004d
:100d9c00000006000200fa00000f78009e007800a8
:100dac00314088001e007800e10f50000b0032002b
:100dbc00e10f500005003900e20f50000b0032002b
:100dcc00e30f50000d0032001000370013e1a800b3
:100ddc00c03d2000af0007000c00370013e1a80055
:100dec0030112000ab0007000800370013e1a80009
:100dfc00e02e2000a70007000400370013e1a80034
:100e0c00904c2000a3000700000000000080fa00b6
:100e1c00000006000200fa00000f78009e00780027
:100e2c00414088001e007800e10f50000a0032009b
:100e3c00e10f500005003900e20f500009003200ac
:100e4c00e30f50000a0032000c0037001fe1a9002c
:100e5c0094c0a900090037001fe1a80094c0a800a5
:100e6c00060037001fe1a80094c0a800030037005b
:100e7c001fe1a80094c0a800000000000080fa0048
:100e8c00000006000200fa00000f78009e007800b7
:100e9c00914088001e0078000000e0000300320042
:100eac00e10f500004003200060037008660a900f4
:100ebc009660a800030037008660a9009660a90020
:100ecc00000000000080fa00000006000200fa009a
:100edc00000f78009e007800814088001e0078008a
:100eec000000e00003003200e10f50001600320059
:100efc001e0037008000eb000000eb00b400070080
:100f0c008000eb000000eb00e80007008000eb0025
:100f1c000000eb001c0107008000eb000000eb0060
:100f2c005001070095a0a80051058000f0f82f0093
:100f3c0080806000000620000100700050058800d1
:100f4c0085a0a9000900370095a0a90051058000d3
:100f5c00f0f82f0080806000000620000100700077
:100f6c005005880085a0a900000000000080fa0050
:100f7c00000006000200fa00000f78009e007800c6
:100f8c00514088001e007800e20f5000190032001a
:100f9c00e20f500005003e000000e00008003200a7
:100fac00e10f50000c00320027003700e30f500017
:100fbc0017003200e40f50001c00320022003700f2
:100fcc0011e1a9009440a9009621ef00cd02a900df
:100fdc00cd22a9001c00370011e1a8009440a80004
:100fec0000f42100b00c8800cd02a900cd22a8008d
:100ffc001500370011e1a8009440a80000f421006e
:10100c00b00c8800cd02a900cd22a9000e0037003b
:10101c0011e1a8009440a80000f42100b00c880055
:10102c00cd02a800cd22a8000700370011e1a800ce
:10103c009440a80000f42100b00c8800cd02a80058
:10104c00cd22a900000000000c28ef000080fa005f
:10105c00000006000200fa00000f78009e007800e5
:10106c00714088001e0078000000e0000300320090
:10107c00e10f50000300320004003700c442a90005
:10108c0002003700c442a800000000000080fa00f3
:10109c00000006000200fa00000f78000e00370076
:1010ac009e007800500d8000808f500004003100ad
:1010bc00500d80000000e900500d8800030037003f
:1010cc00500d80000000e800500d880000fa200050
:1010dc0001002000e50207009e007800500d800002
:1010ec00808f5000eeff3a000080fa0000000600ee
:1010fc000200fa00000f78001e007800cf80de009e
:10110c0086fd07000240220043672400d9fd07003a
:10111c0002f02f00f37724001dfd07005efd070091
:10112c0000007800004088000021ef009e0078004d
:10113c0090d023000088b90000007800800078006f
:10114c000040800000804000100888009460a800d7
:10115c0005e1a8000080fa00000006000000fa007b
:10116c00004080000000e0000500340000408000da
:10117c000000e90000408800100020000300370048
:10118c0005e1a9009460a9000000eb000080fa00c2
:10119c00000006000200fa00000f78009e007800a4
:1011ac00000d8000808f500004003100000d800085
:1011bc006a005000000d880003003700000d80000d
:1011cc006a004000000d88000080fa000000060054
:1011dc000600fa0010079800210798002e009000d6
:1011ec000000e00013003a000000eb00000f780054
:1011fc000000eb00000f7800070037001e0078009d
:10120c0080004000a08e2000008040008000eb0099
:10121c00010878001e0fe8001e007800ff0f500038
:10122c00f6ff34002a29ef002c69ef0010c0b30040
:10123c0031e9b7005149800031c9bf000080fb0083
:10124c0000014000a08e200000004100100078003a
:10125c00808050001e0090000080400050498800a3
:10126c002cc9bf000080fb0080004000a08e200035
:10127c00008040009e009000010878002cc9bf003f
:10128c000040e8007f4060002ce9b70031c9bf0086
:10129c000040e8007f40600031e9b7005049800011
:1012ac004580de000080fa00000006000600fa000f
:1012bc0010079800210798002e0090000000e00015
:1012cc0013003a000000eb00000f78000000eb0068
:1012dc00000f7800070037001e00780080004000e7
:1012ec00608a2000008040008000eb00010878003c
:1012fc001e0fe8001e007800ff0f5000f6ff3400b0
:10130c00e628ef00e868ef0010c0b30030e9b70042
:10131c003147800030c9bf000080fb000001400055
:10132c00608a20000000410010007800808050008e
:10133c001e0090000080400030478800e8c8bf00c5
:10134c000080fb0080004000608a2000008040008c
:10135c009e00900001087800e8c8bf000040e8003b
:10136c007f406000e8e8b70030c9bf000040e800eb
:10137c007f40600030e9b700304780004580de00d8
:10138c000080fa00000006000600fa001007980022
:10139c00210798002e0090000000e00013003a0096
:1013ac000000eb00000f78000000eb00000f78004d
:1013bc00070037001e0078008000400020862000c7
:1013cc00008040008000eb00010878001e0fe80050
:1013dc001e007800ff0f5000f6ff3400a228ef002b
:1013ec00a468ef0010c0b3002fe9b70011458000ce
:1013fc002fc9bf000080fb000001400020862000a8
:10140c000000410010007800808050001e00900009
:10141c000080400010458800a4c8bf000080fb007d
:10142c008000400020862000008040009e0090003c
:10143c0001087800a4c8bf000040e8007f406000ad
:10144c00a4e8b7002fc9bf000040e8007f4060004f
:10145c002fe9b700104580004580de000080fa00bf
:10146c00000006000600fa001007980021079800fb
:10147c002e0090000000e00013003a000000eb008a
:10148c00000f78000000eb00000f78000700370019
:10149c001e00780080004000e081200000804000a9
:1014ac008000eb00010878001e0fe8001e00780099
:1014bc00ff0f5000f6ff34005e28ef006068ef006d
:1014cc0010c0b3002ee9b700f14280002ec9bf0056
:1014dc000080fb0000014000e08120000000410082
:1014ec0010007800808050001e00900000804000aa
:1014fc00f042880060c8bf000080fb008000400004
:10150c00e0812000008040009e00900001087800df
:10151c0060c8bf000040e8007f40600060e8b70092
:10152c002ec9bf000040e8007f4060002ee9b700e4
:10153c00f04280004580de000080fa0000000600ca
:10154c000200fa00000f78009e007800a14088008d
:10155c001e0078008000eb00a20020000300200099
:10156c00820f5000838f58004f003e000060010036
:10157c000a0037001a0037001e003700220037001f
:10158c00260037002a0037002e00370030003700c5
:10159c0034003700380037003e00370020002000b0
:1015ac001cfe07000000eb00aafe07001000200044
:1015bc00e8fd07000000eb006efe070010002000a5
:1015cc0042fe0700100020002efe07000000eb007a
:1015dc00f0fd070010002000c5fe070032003700a8
:1015ec003000200063fe07000000eb0037fe070010
:1015fc002d003700200020005efe070010002000a8
:10160c0032fe0700280037004000200059fe07007a
:10161c000000eb001bfe0700230037001000200029
:10162c0018fe07000000eb00cafd07001e00370083
:10163c000000eb004ffe070020002000acfe07006e
:10164c0019003700100020004afe07001600370072
:10165c000000eb0047fe070020002000a4fe07005e
:10166c00110037001000200042fe0700100020007f
:10167c00b8fd07000c0037000000eb003dfe070032
:10168c0020002000c3fd07000000eb000ffe070048
:10169c000500370010002000defd070010002000c0
:1016ac006cfe0700000000000080fa00000006003d
:1016bc003600f800809fbe00829fbe00849fbe0053
:1016cc00869fbe000000fa008460a900a040800044
:1016dc00e50f500010003200e50f500003003e00f3
:1016ec000000e0000600320024003700e70f500035
:1016fc000f003200ea0f5000130032001f003700b9
:10170c0096fe07000000e00015003a0010002000d3
:10171c008bff07001900370090fe07000000e00067
:10172c0011003a006000200085ff0700130037000d
:10173c008afe07000000e0000d003a008000200047
:10174c007fff07000d00370084fe07000000e0005b
:10175c0009003a000000eb00dcfd07000700370031
:10176c0000000000050037000000000003003700f7
:10177c000000000001003700000000000080fa00ab
:10178c004f03be004f02be004f01be004f00be0013
:10179c003600f900004006003600f800809fbe00bd
:1017ac00829fbe00849fbe00869fbe000000fa0090
:1017bc008660a900a0408000e30f50000e003a00a4
:1017cc0010168000610060000000e000070032008d
:1017dc0010168000620060000000e000050032007e
:1017ec004000200056ff07000300370000000000f7
:1017fc0001003700000000000080fa004f03be001b
:10180c004f02be004f01be004f00be003600f90073
:10181c00004006003600f800809fbe00829fbe008c
:10182c00849fbe00869fbe000000fa008440a90081
:10183c00a0408000e40f500014003200e40f500070
:10184c0003003e00e20f5000060032003400370067
:10185c00e60f500017003200e80f50001f00320056
:10186c002f003700604080000000e80060408800d6
:10187c006140800070112000808f500021003400e6
:10188c00300020002eff070025003700604080004c
:10189c000000e8006040880061408000a004200047
:1018ac00808f5000190034005000200024ff0700e6
:1018bc001b003700604080000000e800604088009a
:1018cc006140800010032000808f50001100340014
:1018dc00700020001aff07001100370060408000e4
:1018ec000000e80060408800614080004032200029
:1018fc00808f5000090034009000200010ff07007a
:10190c000700370000000000050037000000000051
:10191c000300370000000000010037000000000049
:10192c000080fa004f03be004f02be004f01be0004
:10193c004f00be003600f900004006003600f800eb
:10194c00809fbe00829fbe00849fbe00869fbe000b
:10195c000000fa0084c0a90040408000e20f500053
:10196c0005003200e30f500017003200e10f500069
:10197c000b0032001e003700010d8000e02e20000d
:10198c00808f500003003a000000eb0021fd07009f
:10199c0017003700e02e2000fefd07001400370072
:1019ac00010d8000401f2000808f500003003a0082
:1019bc003000200017fd07000d003700401f2000ed
:1019cc00f4fd07000a003700010d8000803e200066
:1019dc00808f500003003a00100020000dfd07001e
:1019ec0003003700803e2000eafd070000000000e5
:1019fc000080fa004f03be004f02be004f01be0034
:101a0c004f00be003600f900004006003600f8001a
:101a1c00809fbe00829fbe00849fbe00869fbe003a
:101a2c000000fa00a0408000e90f50000f003200c7
:101a3c00ea0f50003d003200e10f50007e003a00ea
:101a4c00c018800011002000e1fd0700b0408800a4
:101a5c00b1408000603b2000808f50006f0034004c
:101a6c0020002000b6fe070073003700c01880006d
:101a7c0011002000d6fd0700b0408800b01880008f
:101a8c001100200009fe0700c0408800a01880004b
:101a9c00110020003cfe0700d0408800b1408000bf
:101aac00603b2000808f50000800340030408000e4
:101abc00e20f50000200320020002000b5fc0700ad
:101acc00a00020009efe07005b003700c140800094
:101adc00603b2000808f50000800340030408000b4
:101aec00e10f50000200320010002000a9fc07009a
:101afc00a000200092fe07004f003700d14080006c
:101b0c00603b2000808f5000460034003040800045
:101b1c00e30f500002003200300020009dfc070053
:101b2c00a000200086fe070043003700c01880008c
:101b3c0011002000a6fd0700b0408800b0188000fe
:101b4c0011002000d9fd0700c0408800a0188000bb
:101b5c00110020000cfe0700d0408800b14080002e
:101b6c00603b2000808f5000060034003040800025
:101b7c00e20f5000030032002000200085fc07001b
:101b8c0013003700c1408000603b2000808f500064
:101b9c000600340030408000e10f5000030032009a
:101bac00100020007bfc070009003700d1408000aa
:101bbc00603b2000808f50000500340030408000d6
:101bcc00e30f5000020032003000200071fc0700cf
:101bdc00e01880001100200022fe0700e040880081
:101bec00e140800020802000808f50000f003400e6
:101bfc00e1408000e0872000808f50000d003c0009
:101c0c0010002000b1fc07000000eb0061fc070095
:101c1c002000200036fd0700070037000000000000
:101c2c000500370000000000030037000000000032
:101c3c00010037000000000085a0a9000080fa0018
:101c4c004f03be004f02be004f01be004f00be004e
:101c5c003600f900004006000000fa0036fc0700d0
:0c1c6c000000eb0036fe0700ffff370011
:020000040000fa
:101c7800f03fb1000180b10006003500ee03090015
:101c880000000000403fb1000180b100fbff3d00b3
:101c98001000b000203fb0000200350000800900ad
:081ca80000000000000006002e
:020000040000fa
:101cb000000800002e010000000000002e090000b6
:101cc000040000000200000001010100010000000a
:041cd0000000000010
:020000040000fa
:0200000401f009
:04000c00f8ff0000f9
:020000040000fa
:0200000401f009
:04001c00fdff0000e4
:00000001FF
