:020000040000fa
:080000000002040000000000f2
:020000040000fa
:04000800c80200002a
:020000040000fa
:04000c00c802000026
:020000040000fa
:04001000c802000022
:020000040000fa
:04001400c80200001e
:020000040000fa
:04001800c80200001a
:020000040000fa
:04001c00c802000016
:020000040000fa
:04002000c802000012
:020000040000fa
:04002400c80200000e
:020000040000fa
:04002800c80200000a
:020000040000fa
:04002c00c802000006
:020000040000fa
:04003000f0040000d8
:020000040000fa
:040034005a0400006a
:020000040000fa
:04003800c8020000fa
:020000040000fa
:04003c00c8020000f6
:020000040000fa
:04004000c8020000f2
:020000040000fa
:04004400c8020000ee
:020000040000fa
:04004800c8020000ea
:020000040000fa
:04004c00c8020000e6
:020000040000fa
:04005000c8020000e2
:020000040000fa
:04005400c8020000de
:020000040000fa
:04005800c8020000da
:020000040000fa
:04005c00c8020000d6
:020000040000fa
:04006000c8020000d2
:020000040000fa
:04006400c8020000ce
:020000040000fa
:04006800c8020000ca
:020000040000fa
:04006c00c8020000c6
:020000040000fa
:04007000c8020000c2
:020000040000fa
:04007400c8020000be
:020000040000fa
:04007800c8020000ba
:020000040000fa
:04007c00c8020000b6
:020000040000fa
:04008000c8020000b2
:020000040000fa
:04008400c8020000ae
:020000040000fa
:04008800c8020000aa
:020000040000fa
:04008c00c8020000a6
:020000040000fa
:04009000c8020000a2
:020000040000fa
:04009400c80200009e
:020000040000fa
:04009800c80200009a
:020000040000fa
:04009c00c802000096
:020000040000fa
:0400a000c802000092
:020000040000fa
:0400a400c80200008e
:020000040000fa
:0400a800c80200008a
:020000040000fa
:0400ac00c802000086
:020000040000fa
:0400b000c802000082
:020000040000fa
:0400b400c80200007e
:020000040000fa
:0400b800c80200007a
:020000040000fa
:0400bc00c802000076
:020000040000fa
:0400c000c802000072
:020000040000fa
:0400c400c80200006e
:020000040000fa
:0400c800c80200006a
:020000040000fa
:0400cc00c802000066
:020000040000fa
:0400d000c802000062
:020000040000fa
:0400d400c80200005e
:020000040000fa
:0400d800c80200005a
:020000040000fa
:0400dc00c802000056
:020000040000fa
:0400e000c802000052
:020000040000fa
:0400e400c80200004e
:020000040000fa
:0400e800c80200004a
:020000040000fa
:0400ec00c802000046
:020000040000fa
:0400f000c802000042
:020000040000fa
:0400f400c80200003e
:020000040000fa
:0400f800c80200003a
:020000040000fa
:0400fc00c802000036
:020000040000fa
:04010000c802000031
:020000040000fa
:04010400c80200002d
:020000040000fa
:04010800c802000029
:020000040000fa
:04010c00c802000025
:020000040000fa
:04011000c802000021
:020000040000fa
:04011400c80200001d
:020000040000fa
:04011800c802000019
:020000040000fa
:04011c00c802000015
:020000040000fa
:04012000c802000011
:020000040000fa
:04012400c80200000d
:020000040000fa
:04012800c802000009
:020000040000fa
:04012c00c802000005
:020000040000fa
:04013000c802000001
:020000040000fa
:04013400c8020000fd
:020000040000fa
:04013800c8020000f9
:020000040000fa
:04013c00c8020000f5
:020000040000fa
:04014000c8020000f1
:020000040000fa
:04014400c8020000ed
:020000040000fa
:04014800c8020000e9
:020000040000fa
:04014c00c8020000e5
:020000040000fa
:04015000c8020000e1
:020000040000fa
:04015400c8020000dd
:020000040000fa
:04015800c8020000d9
:020000040000fa
:04015c00c8020000d5
:020000040000fa
:04016000c8020000d1
:020000040000fa
:04016400c8020000cd
:020000040000fa
:04016800c8020000c9
:020000040000fa
:04020800c802000028
:020000040000fa
:04020c00c802000024
:020000040000fa
:04021000c802000020
:020000040000fa
:04021400c80200001c
:020000040000fa
:04021800c802000018
:020000040000fa
:04021c00c802000014
:020000040000fa
:04022000c802000010
:020000040000fa
:04022400c80200000c
:020000040000fa
:04022800c802000008
:020000040000fa
:04022c00c802000004
:020000040000fa
:04023000c802000000
:020000040000fa
:04023400c8020000fc
:020000040000fa
:04023800c8020000f8
:020000040000fa
:04023c00c8020000f4
:020000040000fa
:04024000c8020000f0
:020000040000fa
:04024400c8020000ec
:020000040000fa
:04024800c8020000e8
:020000040000fa
:04024c00c8020000e4
:020000040000fa
:04025000c8020000e0
:020000040000fa
:04025400c8020000dc
:020000040000fa
:04025800c8020000d8
:020000040000fa
:04025c00c8020000d4
:020000040000fa
:04026000c8020000d0
:020000040000fa
:04026400c8020000cc
:020000040000fa
:04026800c8020000c8
:020000040000fa
:04026c00c8020000c4
:020000040000fa
:04027000c8020000c0
:020000040000fa
:04027400c8020000bc
:020000040000fa
:04027800c8020000b8
:020000040000fa
:04027c00c8020000b4
:020000040000fa
:04028000c8020000b0
:020000040000fa
:04028400c8020000ac
:020000040000fa
:04028800c8020000a8
:020000040000fa
:04028c00c8020000a4
:020000040000fa
:04029000c8020000a0
:020000040000fa
:04029400c80200009c
:020000040000fa
:04029800c802000098
:020000040000fa
:04029c00c802000094
:020000040000fa
:0402a000c802000090
:020000040000fa
:0402a400c80200008c
:020000040000fa
:0402a800c802000088
:020000040000fa
:0402ac00c802000084
:020000040000fa
:0402b000c802000080
:020000040000fa
:0402b400c80200007c
:020000040000fa
:0402b800c802000078
:020000040000fa
:0402bc00c802000074
:020000040000fa
:0402c000c802000070
:020000040000fa
:0402c400c80200006c
:020000040000fa
:0402c800c802000068
:020000040000fa
:0402cc00c802000064
:020000040000fa
:0402d000c802000060
:020000040000fa
:0402d400c80200005c
:020000040000fa
:0402d800c802000058
:020000040000fa
:0402dc00c802000054
:020000040000fa
:0402e000c802000050
:020000040000fa
:0402e400c80200004c
:020000040000fa
:0402e800c802000048
:020000040000fa
:0402ec00c802000044
:020000040000fa
:0402f000c802000040
:020000040000fa
:0402f400c80200003c
:020000040000fa
:0402f800c802000038
:020000040000fa
:0402fc00c802000034
:020000040000fa
:04030000c80200002f
:020000040000fa
:04030400c80200002b
:020000040000fa
:04030800c802000027
:020000040000fa
:04030c00c802000023
:020000040000fa
:04031000c80200001f
:020000040000fa
:04031400c80200001b
:020000040000fa
:04031800c802000017
:020000040000fa
:04031c00c802000013
:020000040000fa
:04032000c80200000f
:020000040000fa
:04032400c80200000b
:020000040000fa
:04032800c802000007
:020000040000fa
:04032c00c802000003
:020000040000fa
:04033000c8020000ff
:020000040000fa
:04033400c8020000fb
:020000040000fa
:04033800c8020000f7
:020000040000fa
:04033c00c8020000f3
:020000040000fa
:04034000c8020000ef
:020000040000fa
:04034400c8020000eb
:020000040000fa
:04034800c8020000e7
:020000040000fa
:04034c00c8020000e3
:020000040000fa
:04035000c8020000df
:020000040000fa
:04035400c8020000db
:020000040000fa
:04035800c8020000d7
:020000040000fa
:04035c00c8020000d3
:020000040000fa
:04036000c8020000cf
:020000040000fa
:04036400c8020000cb
:020000040000fa
:04036800c8020000c7
:020000040000fa
:10040000af8020000eff20000e01880000000000d9
:10041000000020000000e000020032000001200087
:1004200020028800140007005b0007000000e000c5
:1004300003003a008059200001002000020037002c
:100440000000200001002000810f70000100320038
:1004500014000700000020000000e000020032004d
:1004600000000200000000008c05020000000000f7
:100470000040da000000fe004440a9000000200017
:100480000000e0000300320000002000a00188000e
:100490004440a800000006008a1f78008b1f7800e7
:1004a0000000060091018800800478000000eb0045
:1004b0001a003700e284440032a0b4009905ba0063
:1004c000e284440032a0b4009906ba00e2844400f9
:1004d00032a0b4000006eb00476fde00fd07b2005b
:1004e000636ce10003003a00ebff07000000eb0043
:1004f0000a003700606ce10004003a00005deb0088
:100500008b05e900fdff3e00040037006168e10053
:10051000010032000086eb000b00070019c7ba008b
:100520001905ba000e04e00003003a000a00e000da
:10053000e0ff3a0000000600fe07b2009e018800be
:100540008a047800f5ff3700395dba008b05e900b1
:100550000c003200295dba008b05e900080032006a
:100560000c00e00003003a00e284440032a0b40032
:10057000f5ff370019ddba008b05e900faff3a00f4
:100580008904e800e184440032a0b40000000600c1
:0c0590000040da000000fe000000050042
:020000040000fa
:10059c000000fa00e024ef00e224ef00c002a80003
:1005ac00c022a800c802a900c822a900c842a800fd
:1005bc00c042a800c062a800c882a800c082a800df
:1005cc00c9e2a800c9c2a900c0c2a900c922a900d9
:1005dc00c902a900c8e2a9000080fa0000000600c8
:1005ec000000fa009a21ef009c21ef00d10c800052
:1005fc0000c0210001007000d00c8800d10c8000dc
:10060c0080ff2f00008060006000b300d00c8800d9
:10061c00e00c8000f001b300e00c880080bb2000ef
:10062c00f00c8800a021ef0011e1a90081088000e6
:10063c00f0fc2f0000806000800888001061a90089
:10064c001021a9009021ef009221ef00810c800075
:10065c00f03f2e0000806000800c8800810c800030
:10066c0080ff2f00008060006000b300800c8800c9
:10067c00900c8000f001b300900c880000712200f7
:10068c00a00c88009621ef0021058000f08f2f0030
:10069c000080600000a0a000200588009440a90004
:1006ac008440a900a421ef00a621ef00210d8000b9
:1006bc0000c0210001007000200d8800210d800079
:1006cc0080ff2f00008060006000b300200d8800c8
:1006dc00300d8000f001b300300d880080bb20008d
:1006ec00400d8800aa21ef000080fa0000000600ef
:1006fc000000fa0005e1a9000421a90021088000ee
:10070c000003200001007000200888000021ef0089
:10071c000080fa00000006000000fa000080fa00d9
:10072c00000006000000fa0099ff0700acff07006c
:10073c00efff0700f8ff07000080fa00000006003a
:10074c000200fa00000f78009e007800114088002b
:10075c001e007800e20f500019003200e20f50002a
:10076c0005003e000000e00008003200e10f5000e0
:10077c000c00320027003700e30f50001700320046
:10078c00e40f50001c0032002200370011e1a900d8
:10079c009440a9009621ef00cd02a900cd22a9001a
:1007ac001c00370011e1a8009440a80080382100fb
:1007bc00b00c8800cd02a800cd22a900150037008e
:1007cc0011e1a8009440a80080382100b00c8800ea
:1007dc00cd02a900cd22a9000e00370011e1a8001e
:1007ec009440a80080382100b00c8800cd02a800ed
:1007fc00cd22a8000700370011e1a8009440a80002
:10080c0080382100b00c8800cd02a900cd22a800b0
:10081c00000000000080fa00000006000200fa0050
:10082c00000f78009e007800014088001e007800c0
:10083c00e10f50000c003200e10f500003003900b2
:10084c00e20f50000b0032000d0037000000eb00ef
:10085c00bbff07000080eb000b000700cdc2a90016
:10086c00cce2a9000600370010002000b4ff0700fe
:10087c000300370010002000b1ff0700000000004b
:10088c000080fa00000006000200fa00000f780059
:10089c000021ef001e0078001008880005e1a80078
:1008ac000080fa00000006003600f800809fbe00b1
:1008bc00829fbe00849fbe00869fbe000000fa008f
:1008cc008460a900004080000000e00005003a00b0
:1008dc0005e1a90010002000d0ff07000000000077
:1008ec0001003700000000000080fa004f03be003a
:1008fc004f02be004f01be004f00be003600f90093
:10090c00004006000000fa0010408000e10f50008b
:10091c0003003200e30f50000700320011003700d3
:10092c003000200086ff0700404080000000e900f6
:10093c00404088000b003700404080000000e00081
:10094c0005003a0020002000b4ff07004000200002
:10095c0040408800030037001000200078ff07009b
:10096c00000000000080fa00000006000000fa0001
:10097c0010408000e10f500003003200e20f5000e5
:10098c000700320011003700200020006cff070028
:10099c00304080000000e900304088000b00370038
:1009ac00304080000000e00005003a000000eb0041
:1009bc009aff0700400020003040880003003700f9
:1009cc00100020005eff0700000000000080fa000d
:1009dc00000006003600f800809fbe00829fbe001b
:1009ec00849fbe00869fbe000000fa008440a900d0
:1009fc00204080000000e80020408800004080007b
:100a0c00e10f500003003200e20f500016003200dc
:100a1c002d00370010408000e10f50000300320021
:100a2c00e30f5000080032000e0037002140800018
:100a3c0070252000808f500002003400b1ff0700a9
:100a4c000428ef00070037002140800050092000e7
:100a5c00808f500002003400aaff07000428ef002a
:100a6c00000000001800370010408000e10f50001b
:100a7c0003003200e20f5000080032001100370072
:100a8c002140800070252000808f50000a00340027
:100a9c00b6ff07000428ef000a0037002140800051
:100aac0050092000808f500005003400afff070074
:100abc000428ef000300370000000000010037009d
:100acc0000000000000000000080fa004f03be0090
:100adc004f02be004f01be004f00be003600f900b1
:100aec00004006000000fa0021058000f0ff2800fd
:100afc000080600000e0a000200588009460a80041
:100b0c008460a9000080fa00000006000000fa00d2
:100b1c0004ff07000000eb0040ff0700f1ff070097
:040b2c00ffff370090
:020000040000fa
:100b30000008000006000000000000000608000099
:100b40000400000002000000040004000000000097
:040b500000000000a1
:020000040000fa
:0200000401f009
:04000c00f8ff0000f9
:00000001FF
